S011000034464E445F707261632E7372656302
S113000045C0000060C000005EC000005CC000008D
S11300105AC0000058C0000056C0000054C0000080
S113002052C0000050C000004EC000004CC0000090
S11300304AC0000048C0000046C0000044C00000A0
S113004042C0000040C000003EC000003CC00000B0
S11300503AC0000038C0000036C0000034C00000C0
S113006032C0000030C000002EC000002CC00000D0
S11300702AC0000028C0000026C0000024C00000E0
S113008022C0000020C000001EC0000011241FBEBA
S1130090CFEFD0E1DEBFCDBF11E0A0E0B1E0E6E4F8
S11300A0F3E000E00BBF02C007900D92AC30B10743
S11300B0D9F721E0ACE0B1E001C01D92AE30B20747
S11300C0E1F7FED03EC19CCF83B3982F917080910D
S11300D00001882331F0911104C01092000180E0E6
S11300E00895811106C0992329F081E080930001CD
S11300F0089580E0089582B1806F82B9E1E6F0E06E
S113010080818FEF80830895CF93DF93CDB7DEB7DF
S11301102A970FB6F894DEBF0FBECDBF9AE0E1E098
S1130120F1E0DE01119601900D929A95E1F76A30A3
S113013008F060E0843008F080E093B19F7093B9D8
S1130140E1E0F0E0EC0FFD1FE60FF11D90819095CA
S113015090936200813051F028F0823059F083305E
S113016069F00FC083B1806183B90BC083B1806231
S113017083B907C083B1806483B903C083B1806845
S113018083B92A960FB6F894DEBF0FBECDBFDF91B8
S1130190CF910895AC018031974210F04FE057E2BF
S11301A080910C0190910D01019683709927909391
S11301B00D0180930C0181309105E9F040F082300B
S11301C0910509F43EC0039709F45FC008959A01AC
S11301D0369527953695279536952795A5ECB0E263
S11301E0A1D0929582958F7089279F708927682F57
S11301F080E08ACF08959A013695279536952795FC
S1130200ABE7B4E18FD0AC01569547959A01ADECBC
S1130210BCEC88D096958795969587959695879505
S1130220BC01660F771F880F991F880F991F880FCD
S1130230991F860F971F281B390B622F81E064CF0B
S113024008959A01ADECBCEC6DD0AC015695479580
S113025056954795569547959A0164D096958795F6
S11302609695879596958795BC01660F771F880F9D
S1130270991F880F991F880F991F860F971F281B96
S1130280390B622F82E040CF08959A01ADECBCECAB
S113029049D0969587959695879596958795BC01AF
S11302A0660F771F880F991F880F991F880F991F52
S11302B0860F971F281B390B622F83E025CF0895E3
S11302C01ADF10E0C0E0D0E003C011E001C010E08C
S11302D0112319F01130A1F0FBCF2196C03187E230
S11302E0D80714F0C0E0D0E0CE0154DF8FE19EE4E3
S11302F00197F1F700C00000E7DE8111E6CFE8CFF7
S113030021971C161D0614F0CFE0D7E2CE0142DF80
S11303108FE19EE40197F1F700C00000D5DE811162
S1130320D6CFD6CFA29FB001B39FC001A39F700DBB
S1130330811D1124911DB29F700D811D1124911DE9
S10903400895F894FFCFBC
S10F0346013F065B4F666D7D277F67005A
S9030000FC
