S016000074696D655F73746F7077617463682E7372656323
S113000045C0000060C000005EC000005CC000008D
S11300105AC0000058C0000056C0000054C0000080
S113002052C0000050C000004EC000004CC0000090
S11300304AC0000048C0000046C0000044C00000A0
S113004089C1000040C000003EC000003CC0000068
S11300503AC0000038C0000036C0000034C00000C0
S113006032C0000030C000002EC000002CC00000D0
S11300702AC0000028C0000026C0000024C00000E0
S113008022C0000020C000001EC0000011241FBEBA
S1130090CFEFD0E1DEBFCDBF11E0A0E0B1E0E8E3F7
S11300A0F6E000E00BBF02C007900D92AE30B1073E
S11300B0D9F721E0AEE0B1E001C01D92A732B2074A
S11300C0E1F783D1B7C29CCF84B3887F84BB089502
S11300D083B3982F917080910201882331F091119C
S11300E004C01092020180E00895811106C0992392
S11300F029F081E080930201089580E0089583B39C
S1130100982F927080910101882331F0911104C0DD
S11301101092010180E00895811106C0992329F00D
S113012081E080930101089580E0089583B3982FBE
S1130130947080910001882331F0911104C01092D1
S1130140000180E00895811106C0992329F081E01F
S113015080930001089580E00895803127E292079A
S11301601CF4992334F403C08FE097E202C080E0CA
S113017090E09093100180930F01089580910F01F6
S11301809091100108958FEF8093610082B1806F88
S113019082B90895CF93DF93CDB7DEB72A970FB610
S11301A0F894DEBF0FBECDBF9AE0E3E0F1E0DE01DC
S11301B0119601900D929A95E1F76A3008F060E08B
S11301C0843008F080E093B19F7093B9E1E0F0E0EF
S11301D0EC0FFD1FE60FF11D908190959093620046
S11301E0813051F028F0823059F0833069F00FC02B
S11301F083B1806183B90BC083B1806283B907C0C6
S113020083B1806483B903C083B1806883B92A96BB
S11302100FB6F894DEBF0FBECDBFDF91CF91089526
S1130220AC018031974210F04FE057E280910E010B
S113023090E0019683709078992324F401978C6F51
S11302409F6F019680930E018130E1F038F0823087
S113025009F43EC0833009F45FC008959A013695CD
S113026027953695279536952795A5ECB0E2BFD10D
S1130270929582958F7089279F708927682F80E0D7
S113028089CF08959A013695279536952795ABE73A
S1130290B4E1ADD1AC01569547959A01ADECBCECF7
S11302A0A6D1969587959695879596958795BC0141
S11302B0660F771F880F991F880F991F880F991F42
S11302C0860F971F281B390B622F81E063CF089597
S11302D09A01ADECBCEC8BD1AC0156954795569583
S11302E04795569547959A0182D196958795969507
S11302F0879596958795BC01660F771F880F991F80
S1130300880F991F880F991F860F971F281B390B79
S1130310622F82E03FCF08959A01ADECBCEC67D127
S1130320969587959695879596958795BC01660FC2
S1130330771F880F991F880F991F880F991F860FA1
S1130340971F281B390B622F83E024CF089516DFF3
S113035067CF08951F920F920FB60F9211240BB618
S11303600F922F933F934F935F936F937F938F934A
S11303709F93AF93BF93EF93FF9386E082BF42D0E6
S1130380019719F483E191E0DDD08DE191E0DAD0B9
S1130390DEDFFF91EF91BF91AF919F918F917F919C
S11303A06F915F914F913F912F910F900BBE0F90E2
S11303B00FBE0F901F90189583B7846083BF87B7D3
S11303C0816087BF86E082BF0895F6DFDCDE7CDED5
S11303D07894C0E003C0C1E001C0C0E0CC2319F0B0
S11303E0C13031F0FBCFE0D0A1DE8111F4CFF6CFE4
S11303F07DD09CDE8111F1CFF1CF909312018093D7
S11304001101089580911101909112010895E3E181
S1130410F1E04281538188EE93E0489F9001499F27
S1130420300D589F300D11244481558164E6649F3A
S1130430C001659F900D1124280F391F8681978173
S11304406AE070E0C1D0820F931F87DE41DE88230B
S113045021F081E090E0D1CF089551DE882319F096
S113046082E090E0CACF0895E3E1F1E04281538154
S113047088EE93E0489F9001499F300D589F300DBE
S113048011244481558164E6649FC001659F900DE9
S11304901124280F391F868197816AE070E094D077
S11304A0820F931F5ADE14DE882319F080E090E057
S11304B0A4CF0895EF92FF920F931F93E12CF12C98
S11304C000E010E020E030E040E050E060E070E068
S11304D083E191E023D080E090E03FDE80E090E093
S11304E08CDF1F910F91FF90EF900895809111017F
S11304F0909112018130910549F08230910551F0BB
S1130500892B59F484DF81E082BB0895ADDF88E054
S113051082BB0895CFDF80E882BB0895EF92FF92FB
S11305200F931F93FC01718360835383428335834C
S1130530248317830683F186E0861F910F91FF9031
S1130540EF900895FC0180859185019691878087BD
S11305508436910544F1118610868681978101962F
S1130560978386830B973CF017821682848195814A
S113057001969583848384819581CC97A4F0158218
S1130580148282819381019693838283CC975CF059
S1130590138212828081918101969183808348978E
S11305A014F0118210820895EDE1F1E082819381CB
S11305B044E6489F9001499F300D11248481958120
S11305C0820F931FCACD089597FB072E16F400944B
S11305D006D077FD08D01AD007FC05D03EF49095DC
S11305E081959F4F0895709561957F4F0895A29FBF
S11305F0B001B39FC001A39F700D811D1124911DF3
S1130600B29F700D811D1124911D0895AA1BBB1B5F
S113061051E107C0AA1FBB1FA617B70710F0A61BFE
S1130620B70B881F991F5A95A9F780959095BC011F
S10B0630CD010895F894FFCFF9
S11106380101013F065B4F666D7D277F670061
S9030000FC
